{
  "contractName": "RockPaperScissors",
  "abi": [
    {
      "inputs": [
        {
          "internalType": "address payable",
          "name": "_fomopool",
          "type": "address"
        }
      ],
      "stateMutability": "nonpayable",
      "type": "constructor"
    },
    {
      "inputs": [],
      "name": "BET_MIN",
      "outputs": [
        {
          "internalType": "uint256",
          "name": "",
          "type": "uint256"
        }
      ],
      "stateMutability": "view",
      "type": "function",
      "constant": true
    },
    {
      "inputs": [],
      "name": "REVEAL_TIMEOUT",
      "outputs": [
        {
          "internalType": "uint256",
          "name": "",
          "type": "uint256"
        }
      ],
      "stateMutability": "view",
      "type": "function",
      "constant": true
    },
    {
      "inputs": [],
      "name": "fomotimer",
      "outputs": [
        {
          "internalType": "uint256",
          "name": "",
          "type": "uint256"
        }
      ],
      "stateMutability": "view",
      "type": "function",
      "constant": true
    },
    {
      "inputs": [],
      "name": "initialBet",
      "outputs": [
        {
          "internalType": "uint256",
          "name": "",
          "type": "uint256"
        }
      ],
      "stateMutability": "view",
      "type": "function",
      "constant": true
    },
    {
      "inputs": [],
      "name": "register",
      "outputs": [
        {
          "internalType": "uint256",
          "name": "",
          "type": "uint256"
        }
      ],
      "stateMutability": "payable",
      "type": "function",
      "payable": true
    },
    {
      "inputs": [
        {
          "internalType": "bytes32",
          "name": "encrMove",
          "type": "bytes32"
        }
      ],
      "name": "play",
      "outputs": [
        {
          "internalType": "bool",
          "name": "",
          "type": "bool"
        }
      ],
      "stateMutability": "nonpayable",
      "type": "function"
    },
    {
      "inputs": [
        {
          "internalType": "string",
          "name": "clearMove",
          "type": "string"
        }
      ],
      "name": "reveal",
      "outputs": [
        {
          "internalType": "enum RockPaperScissors.Moves",
          "name": "",
          "type": "uint8"
        }
      ],
      "stateMutability": "nonpayable",
      "type": "function"
    },
    {
      "inputs": [],
      "name": "getOutcome",
      "outputs": [
        {
          "internalType": "enum RockPaperScissors.Outcomes",
          "name": "",
          "type": "uint8"
        }
      ],
      "stateMutability": "nonpayable",
      "type": "function"
    },
    {
      "inputs": [],
      "name": "getContractBalance",
      "outputs": [
        {
          "internalType": "uint256",
          "name": "",
          "type": "uint256"
        }
      ],
      "stateMutability": "view",
      "type": "function",
      "constant": true
    },
    {
      "inputs": [],
      "name": "whoAmI",
      "outputs": [
        {
          "internalType": "uint256",
          "name": "",
          "type": "uint256"
        }
      ],
      "stateMutability": "view",
      "type": "function",
      "constant": true
    },
    {
      "inputs": [],
      "name": "bothPlayed",
      "outputs": [
        {
          "internalType": "bool",
          "name": "",
          "type": "bool"
        }
      ],
      "stateMutability": "view",
      "type": "function",
      "constant": true
    },
    {
      "inputs": [],
      "name": "bothRevealed",
      "outputs": [
        {
          "internalType": "bool",
          "name": "",
          "type": "bool"
        }
      ],
      "stateMutability": "view",
      "type": "function",
      "constant": true
    },
    {
      "inputs": [],
      "name": "revealTimeLeft",
      "outputs": [
        {
          "internalType": "int256",
          "name": "",
          "type": "int256"
        }
      ],
      "stateMutability": "view",
      "type": "function",
      "constant": true
    },
    {
      "inputs": [
        {
          "internalType": "uint256",
          "name": "move",
          "type": "uint256"
        },
        {
          "internalType": "string",
          "name": "password",
          "type": "string"
        }
      ],
      "name": "getHash",
      "outputs": [
        {
          "internalType": "bytes32",
          "name": "",
          "type": "bytes32"
        }
      ],
      "stateMutability": "pure",
      "type": "function",
      "constant": true
    }
  ],
  "bytecode": "0x608060405234801561001057600080fd5b506040516115c33803806115c38339818101604052602081101561003357600080fd5b810190808051906020019092919050505080600460006101000a81548173ffffffffffffffffffffffffffffffffffffffff021916908373ffffffffffffffffffffffffffffffffffffffff16021790555042600581905550506115278061009c6000396000f3fe6080604052600436106100dd5760003560e01c8063679b9d2d1161007f578063807c850411610059578063807c85041461034c57806385802bf714610379578063c7a1865b1461045f578063da91254c146104b0576100dd565b8063679b9d2d146102c05780636f9fb98a146102eb5780637e7e4b4714610316576100dd565b80633d6ae3a7116100bb5780633d6ae3a71461015657806343445ca8146101815780634c261247146101ae57806351dcb1c314610295576100dd565b80631aa3a008146100e25780631d73c64c146101005780632626ab081461012b575b600080fd5b6100ea6104db565b6040518082815260200191505060405180910390f35b34801561010c57600080fd5b506101156107e3565b6040518082815260200191505060405180910390f35b34801561013757600080fd5b506101406107e9565b6040518082815260200191505060405180910390f35b34801561016257600080fd5b5061016b6107f4565b6040518082815260200191505060405180910390f35b34801561018d57600080fd5b506101966107fa565b60405180821515815260200191505060405180910390f35b3480156101ba57600080fd5b50610274600480360360208110156101d157600080fd5b81019080803590602001906401000000008111156101ee57600080fd5b82018360208201111561020057600080fd5b8035906020019184600183028401116401000000008311171561022257600080fd5b91908080601f016020809104026020016040519081016040528093929190818152602001838380828437600081840152601f19601f82011690508083019250505050505050919291929050505061085c565b6040518082600381111561028457fe5b815260200191505060405180910390f35b3480156102a157600080fd5b506102aa610b2b565b6040518082815260200191505060405180910390f35b3480156102cc57600080fd5b506102d5610b4f565b6040518082815260200191505060405180910390f35b3480156102f757600080fd5b50610300610b55565b6040518082815260200191505060405180910390f35b34801561032257600080fd5b5061032b610b5d565b6040518082600381111561033b57fe5b815260200191505060405180910390f35b34801561035857600080fd5b50610361610e2b565b60405180821515815260200191505060405180910390f35b34801561038557600080fd5b506104496004803603604081101561039c57600080fd5b8101908080359060200190929190803590602001906401000000008111156103c357600080fd5b8201836020820111156103d557600080fd5b803590602001918460018302840111640100000000831117156103f757600080fd5b91908080601f016020809104026020016040519081016040528093929190818152602001838380828437600081840152601f19601f820116905080830192505050505050509192919290505050610e4c565b6040518082815260200191505060405180910390f35b34801561046b57600080fd5b506104986004803603602081101561048257600080fd5b8101908080359060200190929190505050610f54565b60405180821515815260200191505060405180910390f35b3480156104bc57600080fd5b506104c56110fc565b6040518082815260200191505060405180910390f35b600066038d7ea4c680003410156104f157600080fd5b600080541480610502575060005434145b610574576040517f08c379a000000000000000000000000000000000000000000000000000000000815260040180806020018281038252601a8152602001807f70726f7669646520696e697469616c2062657420616d6f756e7400000000000081525060200191505060405180910390fd5b600260009054906101000a900473ffffffffffffffffffffffffffffffffffffffff1673ffffffffffffffffffffffffffffffffffffffff163373ffffffffffffffffffffffffffffffffffffffff16141580156106205750600360009054906101000a900473ffffffffffffffffffffffffffffffffffffffff1673ffffffffffffffffffffffffffffffffffffffff163373ffffffffffffffffffffffffffffffffffffffff1614155b61062957600080fd5b600073ffffffffffffffffffffffffffffffffffffffff16600260009054906101000a900473ffffffffffffffffffffffffffffffffffffffff1673ffffffffffffffffffffffffffffffffffffffff1614156106d15733600260006101000a81548173ffffffffffffffffffffffffffffffffffffffff021916908373ffffffffffffffffffffffffffffffffffffffff16021790555034600081905550600190506107e0565b600073ffffffffffffffffffffffffffffffffffffffff16600360009054906101000a900473ffffffffffffffffffffffffffffffffffffffff1673ffffffffffffffffffffffffffffffffffffffff1614156107725733600360006101000a81548173ffffffffffffffffffffffffffffffffffffffff021916908373ffffffffffffffffffffffffffffffffffffffff160217905550600290506107e0565b6040517f08c379a00000000000000000000000000000000000000000000000000000000081526004018080602001828103825260158152602001807f4f6e6c79203220706c6179657220616c6c6f776564000000000000000000000081525060200191505060405180910390fd5b90565b60005481565b66038d7ea4c6800081565b61025881565b600080600381111561080857fe5b600860009054906101000a900460ff16600381111561082357fe5b1415801561085757506000600381111561083957fe5b600860019054906101000a900460ff16600381111561085457fe5b14155b905090565b6000600260009054906101000a900473ffffffffffffffffffffffffffffffffffffffff1673ffffffffffffffffffffffffffffffffffffffff163373ffffffffffffffffffffffffffffffffffffffff1614806109075750600360009054906101000a900473ffffffffffffffffffffffffffffffffffffffff1673ffffffffffffffffffffffffffffffffffffffff163373ffffffffffffffffffffffffffffffffffffffff16145b61091057600080fd5b6000801b6006541415801561092a57506000801b60075414155b61093357600080fd5b6000826040516020018082805190602001908083835b6020831061096c5780518252602082019150602081019050602083039250610949565b6001836020036101000a03801982511681845116808217855250505050505090500191505060405160208183030381529060405280519060200120905060006109b4846111c4565b60038111156109bf57fe5b9050600060038111156109ce57fe5b8160038111156109da57fe5b14156109eb57600092505050610b26565b600260009054906101000a900473ffffffffffffffffffffffffffffffffffffffff1673ffffffffffffffffffffffffffffffffffffffff163373ffffffffffffffffffffffffffffffffffffffff16148015610a49575060065482145b15610a765780600860006101000a81548160ff02191690836003811115610a6c57fe5b0217905550610b0d565b600360009054906101000a900473ffffffffffffffffffffffffffffffffffffffff1673ffffffffffffffffffffffffffffffffffffffff163373ffffffffffffffffffffffffffffffffffffffff16148015610ad4575060075482145b15610b015780600860016101000a81548160ff02191690836003811115610af757fe5b0217905550610b0c565b600092505050610b26565b5b60006001541415610b2057426001819055505b80925050505b919050565b60008060015414610b46574261025860015401039050610b4c565b61025890505b90565b60055481565b600047905090565b6000806003811115610b6b57fe5b600860009054906101000a900460ff166003811115610b8657fe5b14158015610bba575060006003811115610b9c57fe5b600860019054906101000a900460ff166003811115610bb757fe5b14155b80610bd95750600060015414158015610bd857506102586001540142115b5b610be257600080fd5b6000600860019054906101000a900460ff166003811115610bff57fe5b600860009054906101000a900460ff166003811115610c1a57fe5b1415610c295760039050610db9565b60016003811115610c3657fe5b600860009054906101000a900460ff166003811115610c5157fe5b148015610c825750600380811115610c6557fe5b600860019054906101000a900460ff166003811115610c8057fe5b145b80610ce3575060026003811115610c9557fe5b600860009054906101000a900460ff166003811115610cb057fe5b148015610ce2575060016003811115610cc557fe5b600860019054906101000a900460ff166003811115610ce057fe5b145b5b80610d435750600380811115610cf557fe5b600860009054906101000a900460ff166003811115610d1057fe5b148015610d42575060026003811115610d2557fe5b600860019054906101000a900460ff166003811115610d4057fe5b145b5b80610da5575060006003811115610d5657fe5b600860009054906101000a900460ff166003811115610d7157fe5b14158015610da4575060006003811115610d8757fe5b600860019054906101000a900460ff166003811115610da257fe5b145b5b15610db35760019050610db8565b600290505b5b6000600260009054906101000a900473ffffffffffffffffffffffffffffffffffffffff1690506000600360009054906101000a900473ffffffffffffffffffffffffffffffffffffffff169050600080549050610e15611294565b610e2183838387611385565b8394505050505090565b60008060001b60065414158015610e4757506000801b60075414155b905090565b600060018310158015610e60575060038311155b610ed2576040517f08c379a000000000000000000000000000000000000000000000000000000000815260040180806020018281038252600c8152602001807f696e76616c6964206d6f7665000000000000000000000000000000000000000081525060200191505060405180910390fd5b82826040516020018083815260200182805190602001908083835b60208310610f105780518252602082019150602081019050602083039250610eed565b6001836020036101000a0380198251168184511680821785525050505050509050019250505060405160208183030381529060405280519060200120905092915050565b6000600260009054906101000a900473ffffffffffffffffffffffffffffffffffffffff1673ffffffffffffffffffffffffffffffffffffffff163373ffffffffffffffffffffffffffffffffffffffff161480610fff5750600360009054906101000a900473ffffffffffffffffffffffffffffffffffffffff1673ffffffffffffffffffffffffffffffffffffffff163373ffffffffffffffffffffffffffffffffffffffff16145b61100857600080fd5b600260009054906101000a900473ffffffffffffffffffffffffffffffffffffffff1673ffffffffffffffffffffffffffffffffffffffff163373ffffffffffffffffffffffffffffffffffffffff1614801561106957506000801b600654145b1561107a57816006819055506110f6565b600360009054906101000a900473ffffffffffffffffffffffffffffffffffffffff1673ffffffffffffffffffffffffffffffffffffffff163373ffffffffffffffffffffffffffffffffffffffff161480156110db57506000801b600754145b156110ec57816007819055506110f5565b600090506110f7565b5b5b919050565b6000600260009054906101000a900473ffffffffffffffffffffffffffffffffffffffff1673ffffffffffffffffffffffffffffffffffffffff163373ffffffffffffffffffffffffffffffffffffffff16141561115d57600190506111c1565b600360009054906101000a900473ffffffffffffffffffffffffffffffffffffffff1673ffffffffffffffffffffffffffffffffffffffff163373ffffffffffffffffffffffffffffffffffffffff1614156111bc57600290506111c1565b600090505b90565b600080826000815181106111d457fe5b602001015160f81c60f81b9050603160f81b817effffffffffffffffffffffffffffffffffffffffffffffffffffffffffffff1916141561121957600191505061128f565b603260f81b817effffffffffffffffffffffffffffffffffffffffffffffffffffffffffffff1916141561125157600291505061128f565b603360f81b817effffffffffffffffffffffffffffffffffffffffffffffffffffffffffffff1916141561128957600391505061128f565b60009150505b919050565b6000808190555060006001819055506000600260006101000a81548173ffffffffffffffffffffffffffffffffffffffff021916908373ffffffffffffffffffffffffffffffffffffffff1602179055506000600360006101000a81548173ffffffffffffffffffffffffffffffffffffffff021916908373ffffffffffffffffffffffffffffffffffffffff1602179055506000801b6006819055506000801b6007819055506000600860006101000a81548160ff0219169083600381111561135a57fe5b02179055506000600860016101000a81548160ff0219169083600381111561137e57fe5b0217905550565b6001600381111561139257fe5b81600381111561139e57fe5b14156113f0578373ffffffffffffffffffffffffffffffffffffffff166108fc479081150290604051600060405180830381858888f193505050501580156113ea573d6000803e3d6000fd5b506114eb565b600260038111156113fd57fe5b81600381111561140957fe5b141561145b578273ffffffffffffffffffffffffffffffffffffffff166108fc479081150290604051600060405180830381858888f19350505050158015611455573d6000803e3d6000fd5b506114ea565b8373ffffffffffffffffffffffffffffffffffffffff166108fc839081150290604051600060405180830381858888f193505050501580156114a1573d6000803e3d6000fd5b508273ffffffffffffffffffffffffffffffffffffffff166108fc479081150290604051600060405180830381858888f193505050501580156114e8573d6000803e3d6000fd5b505b5b5050505056fea2646970667358221220f2440f266191c9fb168112fc52fc4bc38f3ae75e992823a1b9c5b5d3808aac7f64736f6c634300060c0033",
  "immutableReferences": {},
  "source": "pragma solidity 0.6.12;\r\n\r\ncontract RockPaperScissors {\r\n\r\n    uint constant public BET_MIN        = 1 finney;    // The minimum bet\r\n    uint constant public REVEAL_TIMEOUT = 10 minutes;  // Max delay of revelation phase\r\n    uint public initialBet;                            // Bet of first player\r\n    uint private firstReveal;                          // Moment of first reveal\r\n\r\n    enum Moves {None, Rock, Paper, Scissors}\r\n    enum Outcomes {None, PlayerA, PlayerB, Draw}   // Possible outcomes\r\n\r\n    // Players addresses\r\n    address payable playerA;\r\n    address payable playerB;\r\n    //fomoPool address\r\n    address payable fomoPool;\r\n    //fomotimer\r\n    uint public fomotimer;\r\n\r\n    // Encrypted moves\r\n    bytes32 private encrMovePlayerA;\r\n    bytes32 private encrMovePlayerB;\r\n\r\n    // Clear moves set only after both players have committed their encrypted moves\r\n    Moves private movePlayerA;\r\n    Moves private movePlayerB;\r\n\r\n    //Player do registration here \r\n\r\n    // Bet must be greater than a minimum amount and greater than bet of first player\r\n    modifier validBet() {\r\n        require(msg.value >= BET_MIN);\r\n        require(initialBet == 0 || msg.value == initialBet,\"provide initial bet amount\");\r\n        _;\r\n    }\r\n\r\n    modifier notAlreadyRegistered() {\r\n        require(msg.sender != playerA && msg.sender != playerB);\r\n        _;\r\n    }\r\n\r\n    // Register a player.\r\n    // Return player's ID upon successful registration.\r\n    function register() public payable validBet notAlreadyRegistered returns (uint) {\r\n        if (playerA == address(0x0)) {\r\n            playerA    = msg.sender;\r\n            initialBet = msg.value;\r\n            return 1;\r\n        } else if (playerB == address(0x0)) {\r\n            playerB = msg.sender;\r\n            return 2;\r\n        }\r\n        else\r\n        revert(\"Only 2 player allowed\");\r\n    }\r\n\r\n//Player will play there move\r\n\r\n    modifier isRegistered() {\r\n        require (msg.sender == playerA || msg.sender == playerB);\r\n        _;\r\n    }\r\n    \r\n    constructor(address payable _fomopool) public{\r\n        fomoPool=_fomopool;\r\n        fomotimer=block.timestamp;\r\n    }\r\n\r\n    // Save player's encrypted move.\r\n    // Return 'true' if move was valid, 'false' otherwise.\r\n    function play(bytes32 encrMove) public isRegistered returns (bool) {\r\n        if (msg.sender == playerA && encrMovePlayerA == 0x0) {\r\n            encrMovePlayerA = encrMove;\r\n        } else if (msg.sender == playerB && encrMovePlayerB == 0x0) {\r\n            encrMovePlayerB = encrMove;\r\n        } else {\r\n           return false;\r\n        }\r\n    }\r\n\r\n//Player will reveal their move \r\n//we use provable fairness as \r\n/* the player provides a SHA256 hash of the concatenation of a move, \r\nrepresented by an integer, and a secret password. The contract stores \r\nthis hash and nobody except the player has access to the actual move. \r\nOnce such a hash has been committed, it cannot be modified.\r\n\r\n*/\r\n    modifier commitPhaseEnded() {\r\n        require(encrMovePlayerA != 0x0 && encrMovePlayerB != 0x0);\r\n        _;\r\n    }\r\n\r\n    // Compare clear move given by the player with saved encrypted move.\r\n    // Return clear move upon success, 'Moves.None' otherwise.\r\n    function reveal(string memory clearMove) public isRegistered commitPhaseEnded returns (Moves) {\r\n        bytes32 encrMove = keccak256(abi.encodePacked(clearMove));  // Hash of clear input (= \"move-password\")\r\n        Moves move       = Moves(getFirstChar(clearMove));       // Actual move (Rock / Paper / Scissors)\r\n\r\n        // If move invalid, exit\r\n        if (move == Moves.None) {\r\n            return Moves.None;\r\n        }\r\n\r\n        // If hashes match, clear move is saved\r\n        if (msg.sender == playerA && encrMove == encrMovePlayerA) {\r\n            movePlayerA = move;\r\n        } else if (msg.sender == playerB && encrMove == encrMovePlayerB) {\r\n            movePlayerB = move;\r\n        } else {\r\n            return Moves.None;\r\n        }\r\n\r\n        // Timer starts after first revelation from one of the player\r\n        if (firstReveal == 0) {\r\n            firstReveal = now;\r\n        }\r\n\r\n        return move;\r\n    }\r\n\r\n    // Return first character of a given string.\r\n    function getFirstChar(string memory str) private pure returns (uint) {\r\n        byte firstByte = bytes(str)[0];\r\n        if (firstByte == 0x31) {\r\n            return 1;\r\n        } else if (firstByte == 0x32) {\r\n            return 2;\r\n        } else if (firstByte == 0x33) {\r\n            return 3;\r\n        } else {\r\n            return 0;\r\n        }\r\n    }\r\n\r\n  //contract will wait for 10 minutes for 2nd player to reveal ,if he/she fail ,then he/she will loose the bet\r\n\r\n    modifier revealPhaseEnded() {\r\n        require((movePlayerA != Moves.None && movePlayerB != Moves.None) ||\r\n                (firstReveal != 0 && now > firstReveal + REVEAL_TIMEOUT));\r\n        _;\r\n    }\r\n\r\n    // Compute the outcome and pay the winner(s).\r\n    // Return the outcome.\r\n    function getOutcome() public revealPhaseEnded returns (Outcomes) {\r\n        Outcomes outcome;\r\n\r\n        if (movePlayerA == movePlayerB) {\r\n            outcome = Outcomes.Draw;\r\n        } else if ((movePlayerA == Moves.Rock     && movePlayerB == Moves.Scissors) ||\r\n                   (movePlayerA == Moves.Paper    && movePlayerB == Moves.Rock)     ||\r\n                   (movePlayerA == Moves.Scissors && movePlayerB == Moves.Paper)    ||\r\n                   (movePlayerA != Moves.None     && movePlayerB == Moves.None)) {\r\n            outcome = Outcomes.PlayerA;\r\n        } else {\r\n            outcome = Outcomes.PlayerB;\r\n        }\r\n\r\n        address payable addrA = playerA;\r\n        address payable addrB = playerB;\r\n        uint betPlayerA       = initialBet;\r\n        reset();  // Reset game before paying to avoid reentrancy attacks or use non-reanantrant modifier\r\n        pay(addrA, addrB, betPlayerA, outcome);\r\n\r\n        return outcome;\r\n    }\r\n\r\n    // Pay the winner(s).\r\n    function pay(address payable addrA, address payable addrB, uint betPlayerA, Outcomes outcome) private {\r\n        // Uncomment lines below if you need to adjust the gas limit\r\n        if (outcome == Outcomes.PlayerA) {\r\n            addrA.transfer(address(this).balance);\r\n            //5 % goes to fomo pool\r\n        } else if (outcome == Outcomes.PlayerB) {\r\n            //5 % goes to fomo pool\r\n            addrB.transfer(address(this).balance);\r\n        } else {\r\n            addrA.transfer(betPlayerA);\r\n            addrB.transfer(address(this).balance);\r\n        }\r\n    }\r\n\r\n    // Reset the game.\r\n    function reset() private {\r\n        initialBet      = 0;\r\n        firstReveal     = 0;\r\n        playerA         = address(0x0);\r\n        playerB         = address(0x0);\r\n        encrMovePlayerA = 0x0;\r\n        encrMovePlayerB = 0x0;\r\n        movePlayerA     = Moves.None;\r\n        movePlayerB     = Moves.None;\r\n    }\r\n\r\n   //Getter function ,for knowing some of the contract state \r\n\r\n    // Return contract balance\r\n    function getContractBalance() public view returns (uint) {\r\n        return address(this).balance;\r\n    }\r\n\r\n    // Return player's ID\r\n    function whoAmI() public view returns (uint) {\r\n        if (msg.sender == playerA) {\r\n            return 1;\r\n        } else if (msg.sender == playerB) {\r\n            return 2;\r\n        } else {\r\n            return 0;\r\n        }\r\n    }\r\n\r\n    // Return 'true' if both players have commited a move, 'false' otherwise.\r\n    function bothPlayed() public view returns (bool) {\r\n        return (encrMovePlayerA != 0x0 && encrMovePlayerB != 0x0);\r\n    }\r\n\r\n    // Return 'true' if both players have revealed their move, 'false' otherwise.\r\n    function bothRevealed() public view returns (bool) {\r\n        return (movePlayerA != Moves.None && movePlayerB != Moves.None);\r\n    }\r\n\r\n    // Return time left before the end of the revelation phase.\r\n    function revealTimeLeft() public view returns (int) {\r\n        if (firstReveal != 0) {\r\n            return int((firstReveal + REVEAL_TIMEOUT) - now);\r\n        }\r\n        return int(REVEAL_TIMEOUT);\r\n    }\r\n    //move is an integer ranging from 1 to 3 which correspond to rock, paper and scissors  \r\n    //password is a string that should be kept secret.\r\n    function getHash(uint move,string memory password) public pure returns(bytes32){\r\n        require(move>=1 && move<=3,\"invalid move\");\r\n        return keccak256(abi.encodePacked(move,password));\r\n    }\r\n}",
  "sourcePath": "C:/Users/raja roy/Desktop/RockePaperSciors/contracts/RockPaperScissors.sol",
  "compiler": {
    "name": "solc",
    "version": "0.6.12+commit.27d51765.Emscripten.clang"
  },
  "schemaVersion": "3.3.3",
  "updatedAt": "2021-06-30T11:46:17.438Z",
  "networkType": "ethereum",
  "devdoc": {
    "kind": "dev",
    "methods": {},
    "version": 1
  },
  "userdoc": {
    "kind": "user",
    "methods": {},
    "version": 1
  }
}